{
  "_format": "hh-sol-artifact-1",
  "contractName": "NFT",
  "sourceName": "contracts/NFT.sol",
  "abi": [
    {
      "inputs": [
        {
          "internalType": "address",
          "name": "initialOwner",
          "type": "address"
        }
      ],
      "stateMutability": "nonpayable",
      "type": "constructor"
    },
    {
      "inputs": [
        {
          "internalType": "address",
          "name": "sender",
          "type": "address"
        },
        {
          "internalType": "uint256",
          "name": "tokenId",
          "type": "uint256"
        },
        {
          "internalType": "address",
          "name": "owner",
          "type": "address"
        }
      ],
      "name": "ERC721IncorrectOwner",
      "type": "error"
    },
    {
      "inputs": [
        {
          "internalType": "address",
          "name": "operator",
          "type": "address"
        },
        {
          "internalType": "uint256",
          "name": "tokenId",
          "type": "uint256"
        }
      ],
      "name": "ERC721InsufficientApproval",
      "type": "error"
    },
    {
      "inputs": [
        {
          "internalType": "address",
          "name": "approver",
          "type": "address"
        }
      ],
      "name": "ERC721InvalidApprover",
      "type": "error"
    },
    {
      "inputs": [
        {
          "internalType": "address",
          "name": "operator",
          "type": "address"
        }
      ],
      "name": "ERC721InvalidOperator",
      "type": "error"
    },
    {
      "inputs": [
        {
          "internalType": "address",
          "name": "owner",
          "type": "address"
        }
      ],
      "name": "ERC721InvalidOwner",
      "type": "error"
    },
    {
      "inputs": [
        {
          "internalType": "address",
          "name": "receiver",
          "type": "address"
        }
      ],
      "name": "ERC721InvalidReceiver",
      "type": "error"
    },
    {
      "inputs": [
        {
          "internalType": "address",
          "name": "sender",
          "type": "address"
        }
      ],
      "name": "ERC721InvalidSender",
      "type": "error"
    },
    {
      "inputs": [
        {
          "internalType": "uint256",
          "name": "tokenId",
          "type": "uint256"
        }
      ],
      "name": "ERC721NonexistentToken",
      "type": "error"
    },
    {
      "inputs": [
        {
          "internalType": "address",
          "name": "owner",
          "type": "address"
        }
      ],
      "name": "OwnableInvalidOwner",
      "type": "error"
    },
    {
      "inputs": [
        {
          "internalType": "address",
          "name": "account",
          "type": "address"
        }
      ],
      "name": "OwnableUnauthorizedAccount",
      "type": "error"
    },
    {
      "anonymous": false,
      "inputs": [
        {
          "indexed": true,
          "internalType": "address",
          "name": "owner",
          "type": "address"
        },
        {
          "indexed": true,
          "internalType": "address",
          "name": "approved",
          "type": "address"
        },
        {
          "indexed": true,
          "internalType": "uint256",
          "name": "tokenId",
          "type": "uint256"
        }
      ],
      "name": "Approval",
      "type": "event"
    },
    {
      "anonymous": false,
      "inputs": [
        {
          "indexed": true,
          "internalType": "address",
          "name": "owner",
          "type": "address"
        },
        {
          "indexed": true,
          "internalType": "address",
          "name": "operator",
          "type": "address"
        },
        {
          "indexed": false,
          "internalType": "bool",
          "name": "approved",
          "type": "bool"
        }
      ],
      "name": "ApprovalForAll",
      "type": "event"
    },
    {
      "anonymous": false,
      "inputs": [
        {
          "indexed": false,
          "internalType": "uint256",
          "name": "_fromTokenId",
          "type": "uint256"
        },
        {
          "indexed": false,
          "internalType": "uint256",
          "name": "_toTokenId",
          "type": "uint256"
        }
      ],
      "name": "BatchMetadataUpdate",
      "type": "event"
    },
    {
      "anonymous": false,
      "inputs": [
        {
          "indexed": false,
          "internalType": "uint256",
          "name": "_tokenId",
          "type": "uint256"
        }
      ],
      "name": "MetadataUpdate",
      "type": "event"
    },
    {
      "anonymous": false,
      "inputs": [
        {
          "indexed": true,
          "internalType": "address",
          "name": "previousOwner",
          "type": "address"
        },
        {
          "indexed": true,
          "internalType": "address",
          "name": "newOwner",
          "type": "address"
        }
      ],
      "name": "OwnershipTransferred",
      "type": "event"
    },
    {
      "anonymous": false,
      "inputs": [
        {
          "indexed": true,
          "internalType": "address",
          "name": "from",
          "type": "address"
        },
        {
          "indexed": true,
          "internalType": "address",
          "name": "to",
          "type": "address"
        },
        {
          "indexed": true,
          "internalType": "uint256",
          "name": "tokenId",
          "type": "uint256"
        }
      ],
      "name": "Transfer",
      "type": "event"
    },
    {
      "inputs": [
        {
          "internalType": "address",
          "name": "to",
          "type": "address"
        },
        {
          "internalType": "uint256",
          "name": "tokenId",
          "type": "uint256"
        }
      ],
      "name": "approve",
      "outputs": [],
      "stateMutability": "nonpayable",
      "type": "function"
    },
    {
      "inputs": [
        {
          "internalType": "address",
          "name": "owner",
          "type": "address"
        }
      ],
      "name": "balanceOf",
      "outputs": [
        {
          "internalType": "uint256",
          "name": "",
          "type": "uint256"
        }
      ],
      "stateMutability": "view",
      "type": "function"
    },
    {
      "inputs": [
        {
          "internalType": "uint256",
          "name": "tokenId",
          "type": "uint256"
        }
      ],
      "name": "burn",
      "outputs": [],
      "stateMutability": "nonpayable",
      "type": "function"
    },
    {
      "inputs": [
        {
          "internalType": "uint256",
          "name": "tokenId",
          "type": "uint256"
        }
      ],
      "name": "getApproved",
      "outputs": [
        {
          "internalType": "address",
          "name": "",
          "type": "address"
        }
      ],
      "stateMutability": "view",
      "type": "function"
    },
    {
      "inputs": [
        {
          "internalType": "address",
          "name": "owner",
          "type": "address"
        },
        {
          "internalType": "address",
          "name": "operator",
          "type": "address"
        }
      ],
      "name": "isApprovedForAll",
      "outputs": [
        {
          "internalType": "bool",
          "name": "",
          "type": "bool"
        }
      ],
      "stateMutability": "view",
      "type": "function"
    },
    {
      "inputs": [],
      "name": "name",
      "outputs": [
        {
          "internalType": "string",
          "name": "",
          "type": "string"
        }
      ],
      "stateMutability": "view",
      "type": "function"
    },
    {
      "inputs": [],
      "name": "nextTokenId",
      "outputs": [
        {
          "internalType": "uint256",
          "name": "",
          "type": "uint256"
        }
      ],
      "stateMutability": "view",
      "type": "function"
    },
    {
      "inputs": [],
      "name": "owner",
      "outputs": [
        {
          "internalType": "address",
          "name": "",
          "type": "address"
        }
      ],
      "stateMutability": "view",
      "type": "function"
    },
    {
      "inputs": [
        {
          "internalType": "uint256",
          "name": "tokenId",
          "type": "uint256"
        }
      ],
      "name": "ownerOf",
      "outputs": [
        {
          "internalType": "address",
          "name": "",
          "type": "address"
        }
      ],
      "stateMutability": "view",
      "type": "function"
    },
    {
      "inputs": [],
      "name": "renounceOwnership",
      "outputs": [],
      "stateMutability": "nonpayable",
      "type": "function"
    },
    {
      "inputs": [
        {
          "internalType": "address",
          "name": "to",
          "type": "address"
        },
        {
          "internalType": "string",
          "name": "uri",
          "type": "string"
        }
      ],
      "name": "safeMint",
      "outputs": [],
      "stateMutability": "nonpayable",
      "type": "function"
    },
    {
      "inputs": [
        {
          "internalType": "address",
          "name": "from",
          "type": "address"
        },
        {
          "internalType": "address",
          "name": "to",
          "type": "address"
        },
        {
          "internalType": "uint256",
          "name": "tokenId",
          "type": "uint256"
        }
      ],
      "name": "safeTransferFrom",
      "outputs": [],
      "stateMutability": "nonpayable",
      "type": "function"
    },
    {
      "inputs": [
        {
          "internalType": "address",
          "name": "from",
          "type": "address"
        },
        {
          "internalType": "address",
          "name": "to",
          "type": "address"
        },
        {
          "internalType": "uint256",
          "name": "tokenId",
          "type": "uint256"
        },
        {
          "internalType": "bytes",
          "name": "data",
          "type": "bytes"
        }
      ],
      "name": "safeTransferFrom",
      "outputs": [],
      "stateMutability": "nonpayable",
      "type": "function"
    },
    {
      "inputs": [
        {
          "internalType": "address",
          "name": "operator",
          "type": "address"
        },
        {
          "internalType": "bool",
          "name": "approved",
          "type": "bool"
        }
      ],
      "name": "setApprovalForAll",
      "outputs": [],
      "stateMutability": "nonpayable",
      "type": "function"
    },
    {
      "inputs": [
        {
          "internalType": "bytes4",
          "name": "interfaceId",
          "type": "bytes4"
        }
      ],
      "name": "supportsInterface",
      "outputs": [
        {
          "internalType": "bool",
          "name": "",
          "type": "bool"
        }
      ],
      "stateMutability": "view",
      "type": "function"
    },
    {
      "inputs": [],
      "name": "symbol",
      "outputs": [
        {
          "internalType": "string",
          "name": "",
          "type": "string"
        }
      ],
      "stateMutability": "view",
      "type": "function"
    },
    {
      "inputs": [
        {
          "internalType": "uint256",
          "name": "tokenId",
          "type": "uint256"
        }
      ],
      "name": "tokenURI",
      "outputs": [
        {
          "internalType": "string",
          "name": "",
          "type": "string"
        }
      ],
      "stateMutability": "view",
      "type": "function"
    },
    {
      "inputs": [
        {
          "internalType": "address",
          "name": "from",
          "type": "address"
        },
        {
          "internalType": "address",
          "name": "to",
          "type": "address"
        },
        {
          "internalType": "uint256",
          "name": "tokenId",
          "type": "uint256"
        }
      ],
      "name": "transferFrom",
      "outputs": [],
      "stateMutability": "nonpayable",
      "type": "function"
    },
    {
      "inputs": [
        {
          "internalType": "address",
          "name": "newOwner",
          "type": "address"
        }
      ],
      "name": "transferOwnership",
      "outputs": [],
      "stateMutability": "nonpayable",
      "type": "function"
    }
  ],
  "bytecode": "0x60806040523480156200001157600080fd5b5060405162002d3a38038062002d3a833981810160405281019062000037919062000288565b806040518060400160405280601381526020017f4e4154204e4654204d61746b6572706c616365000000000000000000000000008152506040518060400160405280600381526020017f4e415400000000000000000000000000000000000000000000000000000000008152508160009081620000b5919062000534565b508060019081620000c7919062000534565b505050600073ffffffffffffffffffffffffffffffffffffffff168173ffffffffffffffffffffffffffffffffffffffff16036200013f5760006040517f1e4fbdf70000000000000000000000000000000000000000000000000000000081526004016200013691906200062c565b60405180910390fd5b62000150816200015860201b60201c565b505062000649565b6000600760009054906101000a900473ffffffffffffffffffffffffffffffffffffffff16905081600760006101000a81548173ffffffffffffffffffffffffffffffffffffffff021916908373ffffffffffffffffffffffffffffffffffffffff1602179055508173ffffffffffffffffffffffffffffffffffffffff168173ffffffffffffffffffffffffffffffffffffffff167f8be0079c531659141344cd1fd0a4f28419497f9722a3daafe3b4186f6b6457e060405160405180910390a35050565b600080fd5b600073ffffffffffffffffffffffffffffffffffffffff82169050919050565b6000620002508262000223565b9050919050565b620002628162000243565b81146200026e57600080fd5b50565b600081519050620002828162000257565b92915050565b600060208284031215620002a157620002a06200021e565b5b6000620002b18482850162000271565b91505092915050565b600081519050919050565b7f4e487b7100000000000000000000000000000000000000000000000000000000600052604160045260246000fd5b7f4e487b7100000000000000000000000000000000000000000000000000000000600052602260045260246000fd5b600060028204905060018216806200033c57607f821691505b602082108103620003525762000351620002f4565b5b50919050565b60008190508160005260206000209050919050565b60006020601f8301049050919050565b600082821b905092915050565b600060088302620003bc7fffffffffffffffffffffffffffffffffffffffffffffffffffffffffffffffff826200037d565b620003c886836200037d565b95508019841693508086168417925050509392505050565b6000819050919050565b6000819050919050565b6000620004156200040f6200040984620003e0565b620003ea565b620003e0565b9050919050565b6000819050919050565b6200043183620003f4565b6200044962000440826200041c565b8484546200038a565b825550505050565b600090565b6200046062000451565b6200046d81848462000426565b505050565b5b8181101562000495576200048960008262000456565b60018101905062000473565b5050565b601f821115620004e457620004ae8162000358565b620004b9846200036d565b81016020851015620004c9578190505b620004e1620004d8856200036d565b83018262000472565b50505b505050565b600082821c905092915050565b60006200050960001984600802620004e9565b1980831691505092915050565b6000620005248383620004f6565b9150826002028217905092915050565b6200053f82620002ba565b67ffffffffffffffff8111156200055b576200055a620002c5565b5b62000567825462000323565b6200057482828562000499565b600060209050601f831160018114620005ac576000841562000597578287015190505b620005a3858262000516565b86555062000613565b601f198416620005bc8662000358565b60005b82811015620005e657848901518255600182019150602085019450602081019050620005bf565b8683101562000606578489015162000602601f891682620004f6565b8355505b6001600288020188555050505b505050505050565b620006268162000243565b82525050565b60006020820190506200064360008301846200061b565b92915050565b6126e180620006596000396000f3fe608060405234801561001057600080fd5b50600436106101215760003560e01c8063715018a6116100ad578063b88d4fde11610071578063b88d4fde146102f4578063c87b56dd14610310578063d204c45e14610340578063e985e9c51461035c578063f2fde38b1461038c57610121565b8063715018a61461027457806375794a3c1461027e5780638da5cb5b1461029c57806395d89b41146102ba578063a22cb465146102d857610121565b806323b872dd116100f457806323b872dd146101c057806342842e0e146101dc57806342966c68146101f85780636352211e1461021457806370a082311461024457610121565b806301ffc9a71461012657806306fdde0314610156578063081812fc14610174578063095ea7b3146101a4575b600080fd5b610140600480360381019061013b9190611b4d565b6103a8565b60405161014d9190611b95565b60405180910390f35b61015e6103ba565b60405161016b9190611c40565b60405180910390f35b61018e60048036038101906101899190611c98565b61044c565b60405161019b9190611d06565b60405180910390f35b6101be60048036038101906101b99190611d4d565b610468565b005b6101da60048036038101906101d59190611d8d565b61047e565b005b6101f660048036038101906101f19190611d8d565b610580565b005b610212600480360381019061020d9190611c98565b6105a0565b005b61022e60048036038101906102299190611c98565b6105b7565b60405161023b9190611d06565b60405180910390f35b61025e60048036038101906102599190611de0565b6105c9565b60405161026b9190611e1c565b60405180910390f35b61027c610683565b005b610286610697565b6040516102939190611e1c565b60405180910390f35b6102a46106a1565b6040516102b19190611d06565b60405180910390f35b6102c26106cb565b6040516102cf9190611c40565b60405180910390f35b6102f260048036038101906102ed9190611e63565b61075d565b005b61030e60048036038101906103099190611fd8565b610773565b005b61032a60048036038101906103259190611c98565b610790565b6040516103379190611c40565b60405180910390f35b61035a600480360381019061035591906120fc565b6107a2565b005b61037660048036038101906103719190612158565b6107e4565b6040516103839190611b95565b60405180910390f35b6103a660048036038101906103a19190611de0565b610878565b005b60006103b3826108fe565b9050919050565b6060600080546103c9906121c7565b80601f01602080910402602001604051908101604052809291908181526020018280546103f5906121c7565b80156104425780601f1061041757610100808354040283529160200191610442565b820191906000526020600020905b81548152906001019060200180831161042557829003601f168201915b5050505050905090565b60006104578261095f565b50610461826109e7565b9050919050565b61047a8282610475610a24565b610a2c565b5050565b600073ffffffffffffffffffffffffffffffffffffffff168273ffffffffffffffffffffffffffffffffffffffff16036104f05760006040517f64a0ae920000000000000000000000000000000000000000000000000000000081526004016104e79190611d06565b60405180910390fd5b600061050483836104ff610a24565b610a3e565b90508373ffffffffffffffffffffffffffffffffffffffff168173ffffffffffffffffffffffffffffffffffffffff161461057a578382826040517f64283d7b000000000000000000000000000000000000000000000000000000008152600401610571939291906121f8565b60405180910390fd5b50505050565b61059b83838360405180602001604052806000815250610773565b505050565b6105b36000826105ae610a24565b610a3e565b5050565b60006105c28261095f565b9050919050565b60008073ffffffffffffffffffffffffffffffffffffffff168273ffffffffffffffffffffffffffffffffffffffff160361063c5760006040517f89c62b640000000000000000000000000000000000000000000000000000000081526004016106339190611d06565b60405180910390fd5b600360008373ffffffffffffffffffffffffffffffffffffffff1673ffffffffffffffffffffffffffffffffffffffff168152602001908152602001600020549050919050565b61068b610c58565b6106956000610cdf565b565b6000600854905090565b6000600760009054906101000a900473ffffffffffffffffffffffffffffffffffffffff16905090565b6060600180546106da906121c7565b80601f0160208091040260200160405190810160405280929190818152602001828054610706906121c7565b80156107535780601f1061072857610100808354040283529160200191610753565b820191906000526020600020905b81548152906001019060200180831161073657829003601f168201915b5050505050905090565b61076f610768610a24565b8383610da5565b5050565b61077e84848461047e565b61078a84848484610f14565b50505050565b606061079b826110cb565b9050919050565b6107aa610c58565b600060085490506107bb83826111de565b6107c581836111fc565b6001600860008282546107d8919061225e565b92505081905550505050565b6000600560008473ffffffffffffffffffffffffffffffffffffffff1673ffffffffffffffffffffffffffffffffffffffff16815260200190815260200160002060008373ffffffffffffffffffffffffffffffffffffffff1673ffffffffffffffffffffffffffffffffffffffff16815260200190815260200160002060009054906101000a900460ff16905092915050565b610880610c58565b600073ffffffffffffffffffffffffffffffffffffffff168173ffffffffffffffffffffffffffffffffffffffff16036108f25760006040517f1e4fbdf70000000000000000000000000000000000000000000000000000000081526004016108e99190611d06565b60405180910390fd5b6108fb81610cdf565b50565b6000634906490660e01b7bffffffffffffffffffffffffffffffffffffffffffffffffffffffff1916827bffffffffffffffffffffffffffffffffffffffffffffffffffffffff19161480610958575061095782611258565b5b9050919050565b60008061096b8361133a565b9050600073ffffffffffffffffffffffffffffffffffffffff168173ffffffffffffffffffffffffffffffffffffffff16036109de57826040517f7e2732890000000000000000000000000000000000000000000000000000000081526004016109d59190611e1c565b60405180910390fd5b80915050919050565b60006004600083815260200190815260200160002060009054906101000a900473ffffffffffffffffffffffffffffffffffffffff169050919050565b600033905090565b610a398383836001611377565b505050565b600080610a4a8461133a565b9050600073ffffffffffffffffffffffffffffffffffffffff168373ffffffffffffffffffffffffffffffffffffffff1614610a8c57610a8b81848661153c565b5b600073ffffffffffffffffffffffffffffffffffffffff168173ffffffffffffffffffffffffffffffffffffffff1614610b1d57610ace600085600080611377565b6001600360008373ffffffffffffffffffffffffffffffffffffffff1673ffffffffffffffffffffffffffffffffffffffff168152602001908152602001600020600082825403925050819055505b600073ffffffffffffffffffffffffffffffffffffffff168573ffffffffffffffffffffffffffffffffffffffff1614610ba0576001600360008773ffffffffffffffffffffffffffffffffffffffff1673ffffffffffffffffffffffffffffffffffffffff168152602001908152602001600020600082825401925050819055505b846002600086815260200190815260200160002060006101000a81548173ffffffffffffffffffffffffffffffffffffffff021916908373ffffffffffffffffffffffffffffffffffffffff160217905550838573ffffffffffffffffffffffffffffffffffffffff168273ffffffffffffffffffffffffffffffffffffffff167fddf252ad1be2c89b69c2b068fc378daa952ba7f163c4a11628f55a4df523b3ef60405160405180910390a4809150509392505050565b610c60610a24565b73ffffffffffffffffffffffffffffffffffffffff16610c7e6106a1565b73ffffffffffffffffffffffffffffffffffffffff1614610cdd57610ca1610a24565b6040517f118cdaa7000000000000000000000000000000000000000000000000000000008152600401610cd49190611d06565b60405180910390fd5b565b6000600760009054906101000a900473ffffffffffffffffffffffffffffffffffffffff16905081600760006101000a81548173ffffffffffffffffffffffffffffffffffffffff021916908373ffffffffffffffffffffffffffffffffffffffff1602179055508173ffffffffffffffffffffffffffffffffffffffff168173ffffffffffffffffffffffffffffffffffffffff167f8be0079c531659141344cd1fd0a4f28419497f9722a3daafe3b4186f6b6457e060405160405180910390a35050565b600073ffffffffffffffffffffffffffffffffffffffff168273ffffffffffffffffffffffffffffffffffffffff1603610e1657816040517f5b08ba18000000000000000000000000000000000000000000000000000000008152600401610e0d9190611d06565b60405180910390fd5b80600560008573ffffffffffffffffffffffffffffffffffffffff1673ffffffffffffffffffffffffffffffffffffffff16815260200190815260200160002060008473ffffffffffffffffffffffffffffffffffffffff1673ffffffffffffffffffffffffffffffffffffffff16815260200190815260200160002060006101000a81548160ff0219169083151502179055508173ffffffffffffffffffffffffffffffffffffffff168373ffffffffffffffffffffffffffffffffffffffff167f17307eab39ab6107e8899845ad3d59bd9653f200f220920489ca2b5937696c3183604051610f079190611b95565b60405180910390a3505050565b60008373ffffffffffffffffffffffffffffffffffffffff163b11156110c5578273ffffffffffffffffffffffffffffffffffffffff1663150b7a02610f58610a24565b8685856040518563ffffffff1660e01b8152600401610f7a94939291906122e7565b6020604051808303816000875af1925050508015610fb657506040513d601f19601f82011682018060405250810190610fb39190612348565b60015b61103a573d8060008114610fe6576040519150601f19603f3d011682016040523d82523d6000602084013e610feb565b606091505b50600081510361103257836040517f64a0ae920000000000000000000000000000000000000000000000000000000081526004016110299190611d06565b60405180910390fd5b805181602001fd5b63150b7a0260e01b7bffffffffffffffffffffffffffffffffffffffffffffffffffffffff1916817bffffffffffffffffffffffffffffffffffffffffffffffffffffffff1916146110c357836040517f64a0ae920000000000000000000000000000000000000000000000000000000081526004016110ba9190611d06565b60405180910390fd5b505b50505050565b60606110d68261095f565b5060006006600084815260200190815260200160002080546110f7906121c7565b80601f0160208091040260200160405190810160405280929190818152602001828054611123906121c7565b80156111705780601f1061114557610100808354040283529160200191611170565b820191906000526020600020905b81548152906001019060200180831161115357829003601f168201915b505050505090506000611181611600565b905060008151036111965781925050506111d9565b6000825111156111cb5780826040516020016111b39291906123b1565b604051602081830303815290604052925050506111d9565b6111d484611617565b925050505b919050565b6111f8828260405180602001604052806000815250611680565b5050565b8060066000848152602001908152602001600020908161121c9190612581565b507ff8e1a15aba9398e019f0b49df1a4fde98ee17ae345cb5f6b5e2c27f5033e8ce78260405161124c9190611e1c565b60405180910390a15050565b60007f80ac58cd000000000000000000000000000000000000000000000000000000007bffffffffffffffffffffffffffffffffffffffffffffffffffffffff1916827bffffffffffffffffffffffffffffffffffffffffffffffffffffffff1916148061132357507f5b5e139f000000000000000000000000000000000000000000000000000000007bffffffffffffffffffffffffffffffffffffffffffffffffffffffff1916827bffffffffffffffffffffffffffffffffffffffffffffffffffffffff1916145b8061133357506113328261169c565b5b9050919050565b60006002600083815260200190815260200160002060009054906101000a900473ffffffffffffffffffffffffffffffffffffffff169050919050565b80806113b05750600073ffffffffffffffffffffffffffffffffffffffff168273ffffffffffffffffffffffffffffffffffffffff1614155b156114e45760006113c08461095f565b9050600073ffffffffffffffffffffffffffffffffffffffff168373ffffffffffffffffffffffffffffffffffffffff161415801561142b57508273ffffffffffffffffffffffffffffffffffffffff168173ffffffffffffffffffffffffffffffffffffffff1614155b801561143e575061143c81846107e4565b155b1561148057826040517fa9fbf51f0000000000000000000000000000000000000000000000000000000081526004016114779190611d06565b60405180910390fd5b81156114e257838573ffffffffffffffffffffffffffffffffffffffff168273ffffffffffffffffffffffffffffffffffffffff167f8c5be1e5ebec7d5bd14f71427d1e84f3dd0314c0f7b2291e5b200ac8c7c3b92560405160405180910390a45b505b836004600085815260200190815260200160002060006101000a81548173ffffffffffffffffffffffffffffffffffffffff021916908373ffffffffffffffffffffffffffffffffffffffff16021790555050505050565b611547838383611706565b6115fb57600073ffffffffffffffffffffffffffffffffffffffff168373ffffffffffffffffffffffffffffffffffffffff16036115bc57806040517f7e2732890000000000000000000000000000000000000000000000000000000081526004016115b39190611e1c565b60405180910390fd5b81816040517f177e802f0000000000000000000000000000000000000000000000000000000081526004016115f2929190612653565b60405180910390fd5b505050565b606060405180602001604052806000815250905090565b60606116228261095f565b50600061162d611600565b9050600081511161164d5760405180602001604052806000815250611678565b80611657846117c7565b6040516020016116689291906123b1565b6040516020818303038152906040525b915050919050565b61168a8383611895565b6116976000848484610f14565b505050565b60007f01ffc9a7000000000000000000000000000000000000000000000000000000007bffffffffffffffffffffffffffffffffffffffffffffffffffffffff1916827bffffffffffffffffffffffffffffffffffffffffffffffffffffffff1916149050919050565b60008073ffffffffffffffffffffffffffffffffffffffff168373ffffffffffffffffffffffffffffffffffffffff16141580156117be57508273ffffffffffffffffffffffffffffffffffffffff168473ffffffffffffffffffffffffffffffffffffffff16148061177f575061177e84846107e4565b5b806117bd57508273ffffffffffffffffffffffffffffffffffffffff166117a5836109e7565b73ffffffffffffffffffffffffffffffffffffffff16145b5b90509392505050565b6060600060016117d68461198e565b01905060008167ffffffffffffffff8111156117f5576117f4611ead565b5b6040519080825280601f01601f1916602001820160405280156118275781602001600182028036833780820191505090505b509050600082602001820190505b60011561188a578080600190039150507f3031323334353637383961626364656600000000000000000000000000000000600a86061a8153600a858161187e5761187d61267c565b5b04945060008503611835575b819350505050919050565b600073ffffffffffffffffffffffffffffffffffffffff168273ffffffffffffffffffffffffffffffffffffffff16036119075760006040517f64a0ae920000000000000000000000000000000000000000000000000000000081526004016118fe9190611d06565b60405180910390fd5b600061191583836000610a3e565b9050600073ffffffffffffffffffffffffffffffffffffffff168173ffffffffffffffffffffffffffffffffffffffff16146119895760006040517f73c6ac6e0000000000000000000000000000000000000000000000000000000081526004016119809190611d06565b60405180910390fd5b505050565b600080600090507a184f03e93ff9f4daa797ed6e38ed64bf6a1f01000000000000000083106119ec577a184f03e93ff9f4daa797ed6e38ed64bf6a1f01000000000000000083816119e2576119e161267c565b5b0492506040810190505b6d04ee2d6d415b85acef81000000008310611a29576d04ee2d6d415b85acef81000000008381611a1f57611a1e61267c565b5b0492506020810190505b662386f26fc100008310611a5857662386f26fc100008381611a4e57611a4d61267c565b5b0492506010810190505b6305f5e1008310611a81576305f5e1008381611a7757611a7661267c565b5b0492506008810190505b6127108310611aa6576127108381611a9c57611a9b61267c565b5b0492506004810190505b60648310611ac95760648381611abf57611abe61267c565b5b0492506002810190505b600a8310611ad8576001810190505b80915050919050565b6000604051905090565b600080fd5b600080fd5b60007fffffffff0000000000000000000000000000000000000000000000000000000082169050919050565b611b2a81611af5565b8114611b3557600080fd5b50565b600081359050611b4781611b21565b92915050565b600060208284031215611b6357611b62611aeb565b5b6000611b7184828501611b38565b91505092915050565b60008115159050919050565b611b8f81611b7a565b82525050565b6000602082019050611baa6000830184611b86565b92915050565b600081519050919050565b600082825260208201905092915050565b60005b83811015611bea578082015181840152602081019050611bcf565b60008484015250505050565b6000601f19601f8301169050919050565b6000611c1282611bb0565b611c1c8185611bbb565b9350611c2c818560208601611bcc565b611c3581611bf6565b840191505092915050565b60006020820190508181036000830152611c5a8184611c07565b905092915050565b6000819050919050565b611c7581611c62565b8114611c8057600080fd5b50565b600081359050611c9281611c6c565b92915050565b600060208284031215611cae57611cad611aeb565b5b6000611cbc84828501611c83565b91505092915050565b600073ffffffffffffffffffffffffffffffffffffffff82169050919050565b6000611cf082611cc5565b9050919050565b611d0081611ce5565b82525050565b6000602082019050611d1b6000830184611cf7565b92915050565b611d2a81611ce5565b8114611d3557600080fd5b50565b600081359050611d4781611d21565b92915050565b60008060408385031215611d6457611d63611aeb565b5b6000611d7285828601611d38565b9250506020611d8385828601611c83565b9150509250929050565b600080600060608486031215611da657611da5611aeb565b5b6000611db486828701611d38565b9350506020611dc586828701611d38565b9250506040611dd686828701611c83565b9150509250925092565b600060208284031215611df657611df5611aeb565b5b6000611e0484828501611d38565b91505092915050565b611e1681611c62565b82525050565b6000602082019050611e316000830184611e0d565b92915050565b611e4081611b7a565b8114611e4b57600080fd5b50565b600081359050611e5d81611e37565b92915050565b60008060408385031215611e7a57611e79611aeb565b5b6000611e8885828601611d38565b9250506020611e9985828601611e4e565b9150509250929050565b600080fd5b600080fd5b7f4e487b7100000000000000000000000000000000000000000000000000000000600052604160045260246000fd5b611ee582611bf6565b810181811067ffffffffffffffff82111715611f0457611f03611ead565b5b80604052505050565b6000611f17611ae1565b9050611f238282611edc565b919050565b600067ffffffffffffffff821115611f4357611f42611ead565b5b611f4c82611bf6565b9050602081019050919050565b82818337600083830152505050565b6000611f7b611f7684611f28565b611f0d565b905082815260208101848484011115611f9757611f96611ea8565b5b611fa2848285611f59565b509392505050565b600082601f830112611fbf57611fbe611ea3565b5b8135611fcf848260208601611f68565b91505092915050565b60008060008060808587031215611ff257611ff1611aeb565b5b600061200087828801611d38565b945050602061201187828801611d38565b935050604061202287828801611c83565b925050606085013567ffffffffffffffff81111561204357612042611af0565b5b61204f87828801611faa565b91505092959194509250565b600067ffffffffffffffff82111561207657612075611ead565b5b61207f82611bf6565b9050602081019050919050565b600061209f61209a8461205b565b611f0d565b9050828152602081018484840111156120bb576120ba611ea8565b5b6120c6848285611f59565b509392505050565b600082601f8301126120e3576120e2611ea3565b5b81356120f384826020860161208c565b91505092915050565b6000806040838503121561211357612112611aeb565b5b600061212185828601611d38565b925050602083013567ffffffffffffffff81111561214257612141611af0565b5b61214e858286016120ce565b9150509250929050565b6000806040838503121561216f5761216e611aeb565b5b600061217d85828601611d38565b925050602061218e85828601611d38565b9150509250929050565b7f4e487b7100000000000000000000000000000000000000000000000000000000600052602260045260246000fd5b600060028204905060018216806121df57607f821691505b6020821081036121f2576121f1612198565b5b50919050565b600060608201905061220d6000830186611cf7565b61221a6020830185611e0d565b6122276040830184611cf7565b949350505050565b7f4e487b7100000000000000000000000000000000000000000000000000000000600052601160045260246000fd5b600061226982611c62565b915061227483611c62565b925082820190508082111561228c5761228b61222f565b5b92915050565b600081519050919050565b600082825260208201905092915050565b60006122b982612292565b6122c3818561229d565b93506122d3818560208601611bcc565b6122dc81611bf6565b840191505092915050565b60006080820190506122fc6000830187611cf7565b6123096020830186611cf7565b6123166040830185611e0d565b818103606083015261232881846122ae565b905095945050505050565b60008151905061234281611b21565b92915050565b60006020828403121561235e5761235d611aeb565b5b600061236c84828501612333565b91505092915050565b600081905092915050565b600061238b82611bb0565b6123958185612375565b93506123a5818560208601611bcc565b80840191505092915050565b60006123bd8285612380565b91506123c98284612380565b91508190509392505050565b60008190508160005260206000209050919050565b60006020601f8301049050919050565b600082821b905092915050565b6000600883026124377fffffffffffffffffffffffffffffffffffffffffffffffffffffffffffffffff826123fa565b61244186836123fa565b95508019841693508086168417925050509392505050565b6000819050919050565b600061247e61247961247484611c62565b612459565b611c62565b9050919050565b6000819050919050565b61249883612463565b6124ac6124a482612485565b848454612407565b825550505050565b600090565b6124c16124b4565b6124cc81848461248f565b505050565b5b818110156124f0576124e56000826124b9565b6001810190506124d2565b5050565b601f82111561253557612506816123d5565b61250f846123ea565b8101602085101561251e578190505b61253261252a856123ea565b8301826124d1565b50505b505050565b600082821c905092915050565b60006125586000198460080261253a565b1980831691505092915050565b60006125718383612547565b9150826002028217905092915050565b61258a82611bb0565b67ffffffffffffffff8111156125a3576125a2611ead565b5b6125ad82546121c7565b6125b88282856124f4565b600060209050601f8311600181146125eb57600084156125d9578287015190505b6125e38582612565565b86555061264b565b601f1984166125f9866123d5565b60005b82811015612621578489015182556001820191506020850194506020810190506125fc565b8683101561263e578489015161263a601f891682612547565b8355505b6001600288020188555050505b505050505050565b60006040820190506126686000830185611cf7565b6126756020830184611e0d565b9392505050565b7f4e487b7100000000000000000000000000000000000000000000000000000000600052601260045260246000fdfea26469706673582212208a70a343509f1f4a3430958c75847baed4f231e51a2cf8f80a3bfe86a1bad53664736f6c63430008180033",
  "linkReferences": {},
  "deployedLinkReferences": {}
}